{
  "_format": "hh-sol-artifact-1",
  "contractName": "Faucet",
  "sourceName": "contracts/Faucet.sol",
  "abi": [
    {
      "inputs": [
        {
          "internalType": "address",
          "name": "_tokenAddress",
          "type": "address"
        }
      ],
      "stateMutability": "nonpayable",
      "type": "constructor"
    },
    {
      "anonymous": false,
      "inputs": [
        {
          "indexed": true,
          "internalType": "address",
          "name": "_account",
          "type": "address"
        },
        {
          "indexed": true,
          "internalType": "uint256",
          "name": "_amount",
          "type": "uint256"
        }
      ],
      "name": "Deposit",
      "type": "event"
    },
    {
      "anonymous": false,
      "inputs": [
        {
          "indexed": true,
          "internalType": "address",
          "name": "_account",
          "type": "address"
        },
        {
          "indexed": true,
          "internalType": "uint256",
          "name": "_amount",
          "type": "uint256"
        }
      ],
      "name": "Withdraw",
      "type": "event"
    },
    {
      "inputs": [],
      "name": "getFaucetBalance",
      "outputs": [
        {
          "internalType": "uint256",
          "name": "",
          "type": "uint256"
        }
      ],
      "stateMutability": "view",
      "type": "function"
    },
    {
      "inputs": [
        {
          "internalType": "address",
          "name": "_address",
          "type": "address"
        }
      ],
      "name": "getUserTransactions",
      "outputs": [
        {
          "components": [
            {
              "internalType": "uint256",
              "name": "timestamp",
              "type": "uint256"
            },
            {
              "internalType": "uint256",
              "name": "amount",
              "type": "uint256"
            }
          ],
          "internalType": "struct Faucet.Transaction[]",
          "name": "",
          "type": "tuple[]"
        }
      ],
      "stateMutability": "view",
      "type": "function"
    },
    {
      "inputs": [],
      "name": "lockTime",
      "outputs": [
        {
          "internalType": "uint256",
          "name": "",
          "type": "uint256"
        }
      ],
      "stateMutability": "view",
      "type": "function"
    },
    {
      "inputs": [
        {
          "internalType": "address",
          "name": "",
          "type": "address"
        }
      ],
      "name": "nextAccessTime",
      "outputs": [
        {
          "internalType": "uint256",
          "name": "",
          "type": "uint256"
        }
      ],
      "stateMutability": "view",
      "type": "function"
    },
    {
      "inputs": [],
      "name": "owner",
      "outputs": [
        {
          "internalType": "address",
          "name": "",
          "type": "address"
        }
      ],
      "stateMutability": "view",
      "type": "function"
    },
    {
      "inputs": [],
      "name": "requestTokens",
      "outputs": [],
      "stateMutability": "nonpayable",
      "type": "function"
    },
    {
      "inputs": [
        {
          "internalType": "uint256",
          "name": "_lockTime",
          "type": "uint256"
        }
      ],
      "name": "setLockTime",
      "outputs": [],
      "stateMutability": "nonpayable",
      "type": "function"
    },
    {
      "inputs": [
        {
          "internalType": "uint256",
          "name": "_amount",
          "type": "uint256"
        }
      ],
      "name": "setWithdrawalAmount",
      "outputs": [],
      "stateMutability": "nonpayable",
      "type": "function"
    },
    {
      "inputs": [],
      "name": "token",
      "outputs": [
        {
          "internalType": "contract IERC20",
          "name": "",
          "type": "address"
        }
      ],
      "stateMutability": "view",
      "type": "function"
    },
    {
      "inputs": [
        {
          "internalType": "address",
          "name": "",
          "type": "address"
        },
        {
          "internalType": "uint256",
          "name": "",
          "type": "uint256"
        }
      ],
      "name": "userTransactions",
      "outputs": [
        {
          "internalType": "uint256",
          "name": "timestamp",
          "type": "uint256"
        },
        {
          "internalType": "uint256",
          "name": "amount",
          "type": "uint256"
        }
      ],
      "stateMutability": "view",
      "type": "function"
    },
    {
      "inputs": [],
      "name": "widthdrawalAmount",
      "outputs": [
        {
          "internalType": "uint256",
          "name": "",
          "type": "uint256"
        }
      ],
      "stateMutability": "view",
      "type": "function"
    },
    {
      "inputs": [],
      "name": "withdrawAllFunds",
      "outputs": [],
      "stateMutability": "nonpayable",
      "type": "function"
    },
    {
      "stateMutability": "payable",
      "type": "receive"
    }
  ],
  "bytecode": "0x608060405268056bc75e2d6310000060025561012c6003553480156200002457600080fd5b50604051620014623803806200146283398181016040528101906200004a91906200013c565b336000806101000a81548173ffffffffffffffffffffffffffffffffffffffff021916908373ffffffffffffffffffffffffffffffffffffffff16021790555080600160006101000a81548173ffffffffffffffffffffffffffffffffffffffff021916908373ffffffffffffffffffffffffffffffffffffffff160217905550506200016e565b600080fd5b600073ffffffffffffffffffffffffffffffffffffffff82169050919050565b60006200010482620000d7565b9050919050565b6200011681620000f7565b81146200012257600080fd5b50565b60008151905062000136816200010b565b92915050565b600060208284031215620001555762000154620000d2565b5b6000620001658482850162000125565b91505092915050565b6112e4806200017e6000396000f3fe6080604052600436106100ab5760003560e01c806395212c5d1161006457806395212c5d146101e5578063ae04d45d14610210578063b842ec4414610239578063ef92539914610277578063f1f959a6146102b4578063fc0c546a146102df576100f6565b80630d668087146100fb578063168ee33a14610126578063359cf2b71461014f57806349649fbf14610166578063516fad0a1461017d5780638da5cb5b146101ba576100f6565b366100f657343373ffffffffffffffffffffffffffffffffffffffff167fe1fffcc4923d04b559f4d29a8bfc6cda04eb5b0d3c460751c2402c5c5cc9109c60405160405180910390a3005b600080fd5b34801561010757600080fd5b5061011061030a565b60405161011d9190610c0c565b60405180910390f35b34801561013257600080fd5b5061014d60048036038101906101489190610c58565b610310565b005b34801561015b57600080fd5b506101646103bc565b005b34801561017257600080fd5b5061017b610684565b005b34801561018957600080fd5b506101a4600480360381019061019f9190610ce3565b610950565b6040516101b19190610c0c565b60405180910390f35b3480156101c657600080fd5b506101cf610968565b6040516101dc9190610d1f565b60405180910390f35b3480156101f157600080fd5b506101fa61098c565b6040516102079190610c0c565b60405180910390f35b34801561021c57600080fd5b5061023760048036038101906102329190610c58565b610992565b005b34801561024557600080fd5b50610260600480360381019061025b9190610d3a565b610a37565b60405161026e929190610d7a565b60405180910390f35b34801561028357600080fd5b5061029e60048036038101906102999190610ce3565b610a78565b6040516102ab9190610e90565b60405180910390f35b3480156102c057600080fd5b506102c9610b2a565b6040516102d69190610c0c565b60405180910390f35b3480156102eb57600080fd5b506102f4610bcd565b6040516103019190610f11565b60405180910390f35b60035481565b60008054906101000a900473ffffffffffffffffffffffffffffffffffffffff1673ffffffffffffffffffffffffffffffffffffffff163373ffffffffffffffffffffffffffffffffffffffff16101561039f576040517f08c379a000000000000000000000000000000000000000000000000000000000815260040161039690610f89565b60405180910390fd5b670de0b6b3a7640000816103b39190610fd8565b60028190555050565b600254600160009054906101000a900473ffffffffffffffffffffffffffffffffffffffff1673ffffffffffffffffffffffffffffffffffffffff166370a0823160006040518263ffffffff1660e01b815260040161041b9190610d1f565b602060405180830381865afa158015610438573d6000803e3d6000fd5b505050506040513d601f19601f8201168201806040525081019061045c919061102f565b101561049d576040517f08c379a0000000000000000000000000000000000000000000000000000000008152600401610494906110a8565b60405180910390fd5b600460003373ffffffffffffffffffffffffffffffffffffffff1673ffffffffffffffffffffffffffffffffffffffff1681526020019081526020016000205442101561051f576040517f08c379a00000000000000000000000000000000000000000000000000000000081526004016105169061113a565b60405180910390fd5b600073ffffffffffffffffffffffffffffffffffffffff163373ffffffffffffffffffffffffffffffffffffffff160361058e576040517f08c379a0000000000000000000000000000000000000000000000000000000008152600401610585906111cc565b60405180910390fd5b6003544261059c91906111ec565b600460003373ffffffffffffffffffffffffffffffffffffffff1673ffffffffffffffffffffffffffffffffffffffff16815260200190815260200160002081905550600160009054906101000a900473ffffffffffffffffffffffffffffffffffffffff1673ffffffffffffffffffffffffffffffffffffffff1663a9059cbb336002546040518363ffffffff1660e01b815260040161063e929190611220565b6020604051808303816000875af115801561065d573d6000803e3d6000fd5b505050506040513d601f19601f820116820180604052508101906106819190611281565b50565b60008054906101000a900473ffffffffffffffffffffffffffffffffffffffff1673ffffffffffffffffffffffffffffffffffffffff163373ffffffffffffffffffffffffffffffffffffffff161015610713576040517f08c379a000000000000000000000000000000000000000000000000000000000815260040161070a90610f89565b60405180910390fd5b600160009054906101000a900473ffffffffffffffffffffffffffffffffffffffff1673ffffffffffffffffffffffffffffffffffffffff1663a9059cbb60008054906101000a900473ffffffffffffffffffffffffffffffffffffffff16600160009054906101000a900473ffffffffffffffffffffffffffffffffffffffff1673ffffffffffffffffffffffffffffffffffffffff166370a08231306040518263ffffffff1660e01b81526004016107cd9190610d1f565b602060405180830381865afa1580156107ea573d6000803e3d6000fd5b505050506040513d601f19601f8201168201806040525081019061080e919061102f565b6040518363ffffffff1660e01b815260040161082b929190611220565b6020604051808303816000875af115801561084a573d6000803e3d6000fd5b505050506040513d601f19601f8201168201806040525081019061086e9190611281565b50600160009054906101000a900473ffffffffffffffffffffffffffffffffffffffff1673ffffffffffffffffffffffffffffffffffffffff166370a08231306040518263ffffffff1660e01b81526004016108ca9190610d1f565b602060405180830381865afa1580156108e7573d6000803e3d6000fd5b505050506040513d601f19601f8201168201806040525081019061090b919061102f565b3373ffffffffffffffffffffffffffffffffffffffff167f884edad9ce6fa2440d8a54cc123490eb96d2768479d49ff9c7366125a942436460405160405180910390a3565b60046020528060005260406000206000915090505481565b60008054906101000a900473ffffffffffffffffffffffffffffffffffffffff1681565b60025481565b60008054906101000a900473ffffffffffffffffffffffffffffffffffffffff1673ffffffffffffffffffffffffffffffffffffffff163373ffffffffffffffffffffffffffffffffffffffff161015610a21576040517f08c379a0000000000000000000000000000000000000000000000000000000008152600401610a1890610f89565b60405180910390fd5b603c81610a2e9190610fd8565b60038190555050565b60056020528160005260406000208181548110610a5357600080fd5b9060005260206000209060020201600091509150508060000154908060010154905082565b6060600560008373ffffffffffffffffffffffffffffffffffffffff1673ffffffffffffffffffffffffffffffffffffffff168152602001908152602001600020805480602002602001604051908101604052809291908181526020016000905b82821015610b1f57838290600052602060002090600202016040518060400160405290816000820154815260200160018201548152505081526020019060010190610ad9565b505050509050919050565b6000600160009054906101000a900473ffffffffffffffffffffffffffffffffffffffff1673ffffffffffffffffffffffffffffffffffffffff166370a08231306040518263ffffffff1660e01b8152600401610b879190610d1f565b602060405180830381865afa158015610ba4573d6000803e3d6000fd5b505050506040513d601f19601f82011682018060405250810190610bc8919061102f565b905090565b600160009054906101000a900473ffffffffffffffffffffffffffffffffffffffff1681565b6000819050919050565b610c0681610bf3565b82525050565b6000602082019050610c216000830184610bfd565b92915050565b600080fd5b610c3581610bf3565b8114610c4057600080fd5b50565b600081359050610c5281610c2c565b92915050565b600060208284031215610c6e57610c6d610c27565b5b6000610c7c84828501610c43565b91505092915050565b600073ffffffffffffffffffffffffffffffffffffffff82169050919050565b6000610cb082610c85565b9050919050565b610cc081610ca5565b8114610ccb57600080fd5b50565b600081359050610cdd81610cb7565b92915050565b600060208284031215610cf957610cf8610c27565b5b6000610d0784828501610cce565b91505092915050565b610d1981610ca5565b82525050565b6000602082019050610d346000830184610d10565b92915050565b60008060408385031215610d5157610d50610c27565b5b6000610d5f85828601610cce565b9250506020610d7085828601610c43565b9150509250929050565b6000604082019050610d8f6000830185610bfd565b610d9c6020830184610bfd565b9392505050565b600081519050919050565b600082825260208201905092915050565b6000819050602082019050919050565b610dd881610bf3565b82525050565b604082016000820151610df46000850182610dcf565b506020820151610e076020850182610dcf565b50505050565b6000610e198383610dde565b60408301905092915050565b6000602082019050919050565b6000610e3d82610da3565b610e478185610dae565b9350610e5283610dbf565b8060005b83811015610e83578151610e6a8882610e0d565b9750610e7583610e25565b925050600181019050610e56565b5085935050505092915050565b60006020820190508181036000830152610eaa8184610e32565b905092915050565b6000819050919050565b6000610ed7610ed2610ecd84610c85565b610eb2565b610c85565b9050919050565b6000610ee982610ebc565b9050919050565b6000610efb82610ede565b9050919050565b610f0b81610ef0565b82525050565b6000602082019050610f266000830184610f02565b92915050565b600082825260208201905092915050565b7f4661756365743a206f6e6c79206f776e65720000000000000000000000000000600082015250565b6000610f73601283610f2c565b9150610f7e82610f3d565b602082019050919050565b60006020820190508181036000830152610fa281610f66565b9050919050565b7f4e487b7100000000000000000000000000000000000000000000000000000000600052601160045260246000fd5b6000610fe382610bf3565b9150610fee83610bf3565b9250828202610ffc81610bf3565b9150828204841483151761101357611012610fa9565b5b5092915050565b60008151905061102981610c2c565b92915050565b60006020828403121561104557611044610c27565b5b60006110538482850161101a565b91505092915050565b7f4661756365743a20696e73756666696369656e742066756e6473000000000000600082015250565b6000611092601a83610f2c565b915061109d8261105c565b602082019050919050565b600060208201905081810360008301526110c181611085565b9050919050565b7f4661756365743a20456e6f7567682074696d65206861736e277420656c61707360008201527f6564000000000000000000000000000000000000000000000000000000000000602082015250565b6000611124602283610f2c565b915061112f826110c8565b604082019050919050565b6000602082019050818103600083015261115381611117565b9050919050565b7f4661756365743a2063616e6e6f742077697468647261772066726f6d2030206160008201527f6464726573730000000000000000000000000000000000000000000000000000602082015250565b60006111b6602683610f2c565b91506111c18261115a565b604082019050919050565b600060208201905081810360008301526111e5816111a9565b9050919050565b60006111f782610bf3565b915061120283610bf3565b925082820190508082111561121a57611219610fa9565b5b92915050565b60006040820190506112356000830185610d10565b6112426020830184610bfd565b9392505050565b60008115159050919050565b61125e81611249565b811461126957600080fd5b50565b60008151905061127b81611255565b92915050565b60006020828403121561129757611296610c27565b5b60006112a58482850161126c565b9150509291505056fea264697066735822122031de7d0bd3eda1a36c9d57f004568baf627396bc82783b65aa9929e8683e85df64736f6c63430008180033",
  "linkReferences": {},
  "deployedLinkReferences": {}
}